{
  "contractName": "betContractTest",
  "abi": [
    {
      "constant": true,
      "inputs": [
        {
          "name": "",
          "type": "address"
        }
      ],
      "name": "participants",
      "outputs": [
        {
          "name": "identifier",
          "type": "address"
        },
        {
          "name": "betAccepted",
          "type": "bool"
        },
        {
          "name": "resultConfirmed",
          "type": "bool"
        },
        {
          "name": "role",
          "type": "uint8"
        }
      ],
      "payable": false,
      "stateMutability": "view",
      "type": "function"
    },
    {
      "constant": true,
      "inputs": [],
      "name": "betConditions",
      "outputs": [
        {
          "name": "",
          "type": "bytes32"
        }
      ],
      "payable": false,
      "stateMutability": "view",
      "type": "function"
    },
    {
      "constant": true,
      "inputs": [],
      "name": "prizePool",
      "outputs": [
        {
          "name": "",
          "type": "uint256"
        }
      ],
      "payable": false,
      "stateMutability": "view",
      "type": "function"
    },
    {
      "constant": true,
      "inputs": [],
      "name": "betConfirmCount",
      "outputs": [
        {
          "name": "",
          "type": "uint256"
        }
      ],
      "payable": false,
      "stateMutability": "view",
      "type": "function"
    },
    {
      "constant": true,
      "inputs": [],
      "name": "currentBetState",
      "outputs": [
        {
          "name": "",
          "type": "uint8"
        }
      ],
      "payable": false,
      "stateMutability": "view",
      "type": "function"
    },
    {
      "constant": true,
      "inputs": [
        {
          "name": "",
          "type": "uint256"
        }
      ],
      "name": "metaParts",
      "outputs": [
        {
          "name": "identifier",
          "type": "address"
        }
      ],
      "payable": false,
      "stateMutability": "view",
      "type": "function"
    },
    {
      "constant": true,
      "inputs": [],
      "name": "betAcceptCount",
      "outputs": [
        {
          "name": "",
          "type": "uint256"
        }
      ],
      "payable": false,
      "stateMutability": "view",
      "type": "function"
    },
    {
      "inputs": [
        {
          "name": "_betConditions",
          "type": "bytes32"
        },
        {
          "name": "_prizePool",
          "type": "uint256"
        }
      ],
      "payable": false,
      "stateMutability": "nonpayable",
      "type": "constructor"
    },
    {
      "constant": false,
      "inputs": [
        {
          "name": "pIdentifier",
          "type": "address"
        }
      ],
      "name": "addBetProposer",
      "outputs": [],
      "payable": false,
      "stateMutability": "nonpayable",
      "type": "function"
    },
    {
      "constant": false,
      "inputs": [
        {
          "name": "pIdentifier",
          "type": "address"
        }
      ],
      "name": "addBetTaker",
      "outputs": [],
      "payable": false,
      "stateMutability": "nonpayable",
      "type": "function"
    },
    {
      "constant": false,
      "inputs": [
        {
          "name": "pIdentifier",
          "type": "address"
        }
      ],
      "name": "addBetNotar",
      "outputs": [],
      "payable": false,
      "stateMutability": "nonpayable",
      "type": "function"
    },
    {
      "constant": true,
      "inputs": [
        {
          "name": "participant",
          "type": "address"
        }
      ],
      "name": "checkIfParticipantAccepted",
      "outputs": [
        {
          "name": "",
          "type": "bool"
        }
      ],
      "payable": false,
      "stateMutability": "view",
      "type": "function"
    },
    {
      "constant": false,
      "inputs": [
        {
          "name": "participant",
          "type": "address"
        }
      ],
      "name": "checkIfParticipantAlreadyEnlisted",
      "outputs": [
        {
          "name": "",
          "type": "bool"
        }
      ],
      "payable": false,
      "stateMutability": "nonpayable",
      "type": "function"
    },
    {
      "constant": false,
      "inputs": [],
      "name": "acceptBet",
      "outputs": [],
      "payable": false,
      "stateMutability": "nonpayable",
      "type": "function"
    },
    {
      "constant": true,
      "inputs": [],
      "name": "getParticipants",
      "outputs": [
        {
          "name": "",
          "type": "uint256"
        }
      ],
      "payable": false,
      "stateMutability": "view",
      "type": "function"
    },
    {
      "constant": true,
      "inputs": [],
      "name": "getBetState",
      "outputs": [
        {
          "name": "",
          "type": "uint8"
        }
      ],
      "payable": false,
      "stateMutability": "view",
      "type": "function"
    },
    {
      "constant": true,
      "inputs": [],
      "name": "getContractConditions",
      "outputs": [
        {
          "name": "",
          "type": "bytes32"
        }
      ],
      "payable": false,
      "stateMutability": "view",
      "type": "function"
    },
    {
      "constant": true,
      "inputs": [],
      "name": "getContractPrizePool",
      "outputs": [
        {
          "name": "",
          "type": "uint256"
        }
      ],
      "payable": false,
      "stateMutability": "view",
      "type": "function"
    }
  ],
  "bytecode": "0x6060604052341561000f57600080fd5b6040516040806200148d833981016040528080519060200190919080519060200190919050506080604051908101604052803373ffffffffffffffffffffffffffffffffffffffff1681526020016000151581526020016000151581526020016000600281111561007c57fe5b815250600560003373ffffffffffffffffffffffffffffffffffffffff1673ffffffffffffffffffffffffffffffffffffffff16815260200190815260200160002060008201518160000160006101000a81548173ffffffffffffffffffffffffffffffffffffffff021916908373ffffffffffffffffffffffffffffffffffffffff16021790555060208201518160000160146101000a81548160ff02191690831515021790555060408201518160000160156101000a81548160ff02191690831515021790555060608201518160000160166101000a81548160ff0219169083600281111561016957fe5b02179055509050506006805480600101828161018591906102e8565b916000526020600020900160006020604051908101604052803373ffffffffffffffffffffffffffffffffffffffff16815250909190915060008201518160000160006101000a81548173ffffffffffffffffffffffffffffffffffffffff021916908373ffffffffffffffffffffffffffffffffffffffff1602179055505050506001600560003373ffffffffffffffffffffffffffffffffffffffff1673ffffffffffffffffffffffffffffffffffffffff16815260200190815260200160002060000160146101000a81548160ff021916908315150217905550816000816000191690555080600181905550600160028190555033600460006101000a81548173ffffffffffffffffffffffffffffffffffffffff021916908373ffffffffffffffffffffffffffffffffffffffff1602179055506000600460146101000a81548160ff021916908360038111156102dc57fe5b0217905550505061035a565b81548183558181151161030f5781836000526020600020918201910161030e9190610314565b5b505050565b61035791905b8082111561035357600080820160006101000a81549073ffffffffffffffffffffffffffffffffffffffff02191690555060010161031a565b5090565b90565b611123806200036a6000396000f3006060604052600436106100f1576000357c0100000000000000000000000000000000000000000000000000000000900463ffffffff16806309e69ede146100f6578063125795d01461019a5780631b698299146101cb57806330bfcb5f146102045780633912253e146102195780635aa68ac01461024a578063719ce73e1461027357806377e58a161461029c5780637956d375146102d55780638aba7b001461030c57806399823ace146103355780639b6c923f1461036c578063a56e5a08146103bd578063b2f695d7146103e6578063ce39a61c14610449578063e7fd640414610482578063f4cc5fd1146104d3575b600080fd5b341561010157600080fd5b61012d600480803573ffffffffffffffffffffffffffffffffffffffff169060200190919050506104fc565b604051808573ffffffffffffffffffffffffffffffffffffffff1673ffffffffffffffffffffffffffffffffffffffff168152602001841515151581526020018315151515815260200182600281111561018357fe5b60ff16815260200194505050505060405180910390f35b34156101a557600080fd5b6101ad610573565b60405180826000191660001916815260200191505060405180910390f35b34156101d657600080fd5b610202600480803573ffffffffffffffffffffffffffffffffffffffff1690602001909190505061057c565b005b341561020f57600080fd5b6102176107fc565b005b341561022457600080fd5b61022c610902565b60405180826000191660001916815260200191505060405180910390f35b341561025557600080fd5b61025d610908565b6040518082815260200191505060405180910390f35b341561027e57600080fd5b6102866109e2565b6040518082815260200191505060405180910390f35b34156102a757600080fd5b6102d3600480803573ffffffffffffffffffffffffffffffffffffffff169060200190919050506109e8565b005b34156102e057600080fd5b6102e8610c67565b604051808260038111156102f857fe5b60ff16815260200191505060405180910390f35b341561031757600080fd5b61031f610c7e565b6040518082815260200191505060405180910390f35b341561034057600080fd5b610348610c84565b6040518082600381111561035857fe5b60ff16815260200191505060405180910390f35b341561037757600080fd5b6103a3600480803573ffffffffffffffffffffffffffffffffffffffff16906020019091905050610c97565b604051808215151515815260200191505060405180910390f35b34156103c857600080fd5b6103d0610cf0565b6040518082815260200191505060405180910390f35b34156103f157600080fd5b6104076004808035906020019091905050610cfa565b604051808273ffffffffffffffffffffffffffffffffffffffff1673ffffffffffffffffffffffffffffffffffffffff16815260200191505060405180910390f35b341561045457600080fd5b610480600480803573ffffffffffffffffffffffffffffffffffffffff16906020019091905050610d44565b005b341561048d57600080fd5b6104b9600480803573ffffffffffffffffffffffffffffffffffffffff16906020019091905050610fc4565b604051808215151515815260200191505060405180910390f35b34156104de57600080fd5b6104e661102e565b6040518082815260200191505060405180910390f35b60056020528060005260406000206000915090508060000160009054906101000a900473ffffffffffffffffffffffffffffffffffffffff16908060000160149054906101000a900460ff16908060000160159054906101000a900460ff16908060000160169054906101000a900460ff16905084565b60008054905090565b600460009054906101000a900473ffffffffffffffffffffffffffffffffffffffff1673ffffffffffffffffffffffffffffffffffffffff163373ffffffffffffffffffffffffffffffffffffffff161415156105d857600080fd5b600060038111156105e557fe5b600460149054906101000a900460ff16600381111561060057fe5b14151561060c57600080fd5b6000151561061982610fc4565b151514151561062757600080fd5b6080604051908101604052808273ffffffffffffffffffffffffffffffffffffffff1681526020016000151581526020016000151581526020016001600281111561066e57fe5b815250600560008373ffffffffffffffffffffffffffffffffffffffff1673ffffffffffffffffffffffffffffffffffffffff16815260200190815260200160002060008201518160000160006101000a81548173ffffffffffffffffffffffffffffffffffffffff021916908373ffffffffffffffffffffffffffffffffffffffff16021790555060208201518160000160146101000a81548160ff02191690831515021790555060408201518160000160156101000a81548160ff02191690831515021790555060608201518160000160166101000a81548160ff0219169083600281111561075b57fe5b0217905550905050600680548060010182816107779190611034565b916000526020600020900160006020604051908101604052808573ffffffffffffffffffffffffffffffffffffffff16815250909190915060008201518160000160006101000a81548173ffffffffffffffffffffffffffffffffffffffff021916908373ffffffffffffffffffffffffffffffffffffffff16021790555050505050565b60011515600560003373ffffffffffffffffffffffffffffffffffffffff1673ffffffffffffffffffffffffffffffffffffffff16815260200190815260200160002060000160149054906101000a900460ff1615151415151561085f57600080fd5b6001600560003373ffffffffffffffffffffffffffffffffffffffff1673ffffffffffffffffffffffffffffffffffffffff16815260200190815260200160002060000160146101000a81548160ff0219169083151502179055506002600081548092919060010191905055506006805490506002541415610900576001600460146101000a81548160ff021916908360038111156108fa57fe5b02179055505b565b60005481565b60008060008060008091505b6006805490508210156109d85760068281548110151561093057fe5b906000526020600020900160000160009054906101000a900473ffffffffffffffffffffffffffffffffffffffff1690508380548060010182816109749190611060565b9160005260206000209001600083909190916101000a81548173ffffffffffffffffffffffffffffffffffffffff021916908373ffffffffffffffffffffffffffffffffffffffff1602179055505082806001019350508180600101925050610914565b8294505050505090565b60015481565b600460009054906101000a900473ffffffffffffffffffffffffffffffffffffffff1673ffffffffffffffffffffffffffffffffffffffff163373ffffffffffffffffffffffffffffffffffffffff16141515610a4457600080fd5b60006003811115610a5157fe5b600460149054906101000a900460ff166003811115610a6c57fe5b141515610a7857600080fd5b60001515610a8582610fc4565b1515141515610a9357600080fd5b6080604051908101604052808273ffffffffffffffffffffffffffffffffffffffff168152602001600015158152602001600015158152602001600280811115610ad957fe5b815250600560008373ffffffffffffffffffffffffffffffffffffffff1673ffffffffffffffffffffffffffffffffffffffff16815260200190815260200160002060008201518160000160006101000a81548173ffffffffffffffffffffffffffffffffffffffff021916908373ffffffffffffffffffffffffffffffffffffffff16021790555060208201518160000160146101000a81548160ff02191690831515021790555060408201518160000160156101000a81548160ff02191690831515021790555060608201518160000160166101000a81548160ff02191690836002811115610bc657fe5b021790555090505060068054806001018281610be29190611034565b916000526020600020900160006020604051908101604052808573ffffffffffffffffffffffffffffffffffffffff16815250909190915060008201518160000160006101000a81548173ffffffffffffffffffffffffffffffffffffffff021916908373ffffffffffffffffffffffffffffffffffffffff16021790555050505050565b6000600460149054906101000a900460ff16905090565b60035481565b600460149054906101000a900460ff1681565b6000600560008373ffffffffffffffffffffffffffffffffffffffff1673ffffffffffffffffffffffffffffffffffffffff16815260200190815260200160002060000160149054906101000a900460ff169050919050565b6000600154905090565b600681815481101515610d0957fe5b90600052602060002090016000915090508060000160009054906101000a900473ffffffffffffffffffffffffffffffffffffffff16905081565b600460009054906101000a900473ffffffffffffffffffffffffffffffffffffffff1673ffffffffffffffffffffffffffffffffffffffff163373ffffffffffffffffffffffffffffffffffffffff16141515610da057600080fd5b60006003811115610dad57fe5b600460149054906101000a900460ff166003811115610dc857fe5b141515610dd457600080fd5b60001515610de182610fc4565b1515141515610def57600080fd5b6080604051908101604052808273ffffffffffffffffffffffffffffffffffffffff16815260200160001515815260200160001515815260200160006002811115610e3657fe5b815250600560008373ffffffffffffffffffffffffffffffffffffffff1673ffffffffffffffffffffffffffffffffffffffff16815260200190815260200160002060008201518160000160006101000a81548173ffffffffffffffffffffffffffffffffffffffff021916908373ffffffffffffffffffffffffffffffffffffffff16021790555060208201518160000160146101000a81548160ff02191690831515021790555060408201518160000160156101000a81548160ff02191690831515021790555060608201518160000160166101000a81548160ff02191690836002811115610f2357fe5b021790555090505060068054806001018281610f3f9190611034565b916000526020600020900160006020604051908101604052808573ffffffffffffffffffffffffffffffffffffffff16815250909190915060008201518160000160006101000a81548173ffffffffffffffffffffffffffffffffffffffff021916908373ffffffffffffffffffffffffffffffffffffffff16021790555050505050565b600080600080915060068054905082101561102257600682815481101515610fe857fe5b906000526020600020900160000160009054906101000a900473ffffffffffffffffffffffffffffffffffffffff16905060019250611027565b600092505b5050919050565b60025481565b81548183558181151161105b5781836000526020600020918201910161105a919061108c565b5b505050565b8154818355818115116110875781836000526020600020918201910161108691906110d2565b5b505050565b6110cf91905b808211156110cb57600080820160006101000a81549073ffffffffffffffffffffffffffffffffffffffff021916905550600101611092565b5090565b90565b6110f491905b808211156110f05760008160009055506001016110d8565b5090565b905600a165627a7a7230582035135580bf147bc160a9dad04ba4b3397e2c577d287275ed76d465255af2dd6b0029",
  "source": "pragma solidity ^0.4.0;\r\n\r\ncontract betContractTest {\r\n\r\n    bytes32 public betConditions;\r\n    uint public prizePool;\r\n    uint public betAcceptCount;\r\n    uint public betConfirmCount;\r\n\r\n    address betOwner;\r\n\r\n    enum BetRole{ BetProposer, BetTaker, Notar}\r\n    enum BetState{ Locked, Running, Closed, Canceled}\r\n    BetState public currentBetState;\r\n\r\n    modifier onlyOwnerCanAdd{ require(msg.sender == betOwner);_;}\r\n\r\n\r\n    struct Participant{\r\n        address identifier;\r\n        bool betAccepted;\r\n        bool resultConfirmed;\r\n        BetRole role;\r\n    }\r\n\r\n    struct ParticipantMETA{\r\n        address identifier;\r\n    }\r\n\r\n    mapping(address => Participant) public participants;\r\n    ParticipantMETA[] public metaParts;\r\n\r\n\r\n    function betContractTest(bytes32 _betConditions, uint _prizePool) public{\r\n        participants[msg.sender] = Participant(msg.sender, false, false, BetRole.BetProposer);\r\n\r\n        metaParts.push(ParticipantMETA({identifier : msg.sender}));\r\n\r\n        participants[msg.sender].betAccepted = true;\r\n\r\n        betConditions = _betConditions;\r\n        prizePool = _prizePool;\r\n        betAcceptCount = 1;\r\n\r\n        betOwner = msg.sender;\r\n        currentBetState = BetState.Locked;\r\n\r\n    }\r\n\r\n    function addBetProposer(address pIdentifier) public onlyOwnerCanAdd{\r\n        require(currentBetState == BetState.Locked);\r\n        require(checkIfParticipantAlreadyEnlisted(pIdentifier) == false);\r\n        participants[pIdentifier] = Participant(pIdentifier, false, false, BetRole.BetProposer);\r\n\r\n        metaParts.push(ParticipantMETA({identifier : pIdentifier}));\r\n    }\r\n\r\n    function addBetTaker(address pIdentifier) public onlyOwnerCanAdd{\r\n        require(currentBetState == BetState.Locked);\r\n        require(checkIfParticipantAlreadyEnlisted(pIdentifier) == false);\r\n        participants[pIdentifier] = Participant(pIdentifier, false, false, BetRole.BetTaker);\r\n\r\n        metaParts.push(ParticipantMETA({identifier : pIdentifier}));\r\n    }\r\n\r\n    function addBetNotar(address pIdentifier) public onlyOwnerCanAdd{\r\n        require(currentBetState == BetState.Locked);\r\n        require(checkIfParticipantAlreadyEnlisted(pIdentifier) == false);\r\n        participants[pIdentifier] = Participant(pIdentifier, false, false, BetRole.Notar);\r\n\r\n        metaParts.push(ParticipantMETA({identifier : pIdentifier}));\r\n    }\r\n\r\n    function checkIfParticipantAccepted(address participant) public view returns (bool){\r\n        return participants[participant].betAccepted;\r\n    }\r\n\r\n    function checkIfParticipantAlreadyEnlisted(address participant) returns (bool){\r\n        for(uint i = 0; i < metaParts.length; i++){\r\n            address currentIdentifier = metaParts[i].identifier;\r\n            return true;\r\n        }\r\n\r\n        return false;\r\n    }\r\n\r\n    function acceptBet() public{\r\n        require(participants[msg.sender].betAccepted != true);\r\n\r\n\r\n        participants[msg.sender].betAccepted = true;\r\n\r\n        betAcceptCount++;\r\n\r\n        if(betAcceptCount == metaParts.length){\r\n            currentBetState = BetState.Running;\r\n        }\r\n    }\r\n\r\n    function getParticipants() public view returns (uint){\r\n        address[] registeredParticipants;\r\n        uint addressCount;\r\n\r\n        for(uint i = 0; i < metaParts.length; i++){\r\n            address currentIdentifier = metaParts[i].identifier;\r\n            registeredParticipants.push(currentIdentifier);\r\n            addressCount++;\r\n        }\r\n\r\n        return addressCount;\r\n    }\r\n\r\n    function getBetState() public view returns (BetState){\r\n        return currentBetState;\r\n    }\r\n\r\n    function getContractConditions() public view returns (bytes32){\r\n        return betConditions;\r\n    }\r\n\r\n    function getContractPrizePool() public view returns (uint){\r\n        return prizePool;\r\n    }\r\n\r\n}\r\n",
  "sourcePath": "C:\\BDA\\pet-shop-tutorial\\contracts\\betContractTest.sol",
  "compiler": {
    "name": "solc",
    "version": "0.4.19+commit.c4cbbb05.Emscripten.clang"
  },
  "schemaVersion": "1.0.1",
  "updatedAt": "2018-02-23T16:08:03.616Z"
}